{
  "_format": "hh-sol-artifact-1",
  "contractName": "EyeMarketplace",
  "sourceName": "contracts/EyeMarketplace.sol",
  "abi": [
    {
      "inputs": [
        {
          "internalType": "contract IERC20",
          "name": "_token",
          "type": "address"
        },
        {
          "internalType": "contract IERC721Enumerable",
          "name": "_nft",
          "type": "address"
        }
      ],
      "stateMutability": "nonpayable",
      "type": "constructor"
    },
    {
      "inputs": [
        {
          "internalType": "address",
          "name": "target",
          "type": "address"
        }
      ],
      "name": "AddressEmptyCode",
      "type": "error"
    },
    {
      "inputs": [
        {
          "internalType": "address",
          "name": "account",
          "type": "address"
        }
      ],
      "name": "AddressInsufficientBalance",
      "type": "error"
    },
    {
      "inputs": [],
      "name": "FailedInnerCall",
      "type": "error"
    },
    {
      "inputs": [
        {
          "internalType": "address",
          "name": "owner",
          "type": "address"
        }
      ],
      "name": "OwnableInvalidOwner",
      "type": "error"
    },
    {
      "inputs": [
        {
          "internalType": "address",
          "name": "account",
          "type": "address"
        }
      ],
      "name": "OwnableUnauthorizedAccount",
      "type": "error"
    },
    {
      "inputs": [
        {
          "internalType": "address",
          "name": "token",
          "type": "address"
        }
      ],
      "name": "SafeERC20FailedOperation",
      "type": "error"
    },
    {
      "anonymous": false,
      "inputs": [
        {
          "indexed": false,
          "internalType": "address",
          "name": "_from",
          "type": "address"
        },
        {
          "indexed": false,
          "internalType": "uint256",
          "name": "_tokenId",
          "type": "uint256"
        },
        {
          "indexed": false,
          "internalType": "uint256",
          "name": "_price",
          "type": "uint256"
        }
      ],
      "name": "BuyNFT",
      "type": "event"
    },
    {
      "anonymous": false,
      "inputs": [
        {
          "indexed": true,
          "internalType": "address",
          "name": "_from",
          "type": "address"
        },
        {
          "indexed": false,
          "internalType": "uint256",
          "name": "_tokenId",
          "type": "uint256"
        },
        {
          "indexed": false,
          "internalType": "uint256",
          "name": "_price",
          "type": "uint256"
        }
      ],
      "name": "ListNFT",
      "type": "event"
    },
    {
      "anonymous": false,
      "inputs": [
        {
          "indexed": true,
          "internalType": "address",
          "name": "previousOwner",
          "type": "address"
        },
        {
          "indexed": true,
          "internalType": "address",
          "name": "newOwner",
          "type": "address"
        }
      ],
      "name": "OwnershipTransferred",
      "type": "event"
    },
    {
      "anonymous": false,
      "inputs": [
        {
          "indexed": false,
          "internalType": "contract IERC721Enumerable",
          "name": "_nft",
          "type": "address"
        }
      ],
      "name": "SetNFT",
      "type": "event"
    },
    {
      "anonymous": false,
      "inputs": [
        {
          "indexed": false,
          "internalType": "uint256",
          "name": "_tax",
          "type": "uint256"
        }
      ],
      "name": "SetTax",
      "type": "event"
    },
    {
      "anonymous": false,
      "inputs": [
        {
          "indexed": false,
          "internalType": "contract IERC20",
          "name": "_token",
          "type": "address"
        }
      ],
      "name": "SetToken",
      "type": "event"
    },
    {
      "anonymous": false,
      "inputs": [
        {
          "indexed": true,
          "internalType": "address",
          "name": "_from",
          "type": "address"
        },
        {
          "indexed": false,
          "internalType": "uint256",
          "name": "_tokenId",
          "type": "uint256"
        }
      ],
      "name": "UnListNFT",
      "type": "event"
    },
    {
      "anonymous": false,
      "inputs": [
        {
          "indexed": false,
          "internalType": "uint256",
          "name": "_tokenId",
          "type": "uint256"
        },
        {
          "indexed": false,
          "internalType": "uint256",
          "name": "_price",
          "type": "uint256"
        }
      ],
      "name": "UpdateListingNFTPrice",
      "type": "event"
    },
    {
      "inputs": [
        {
          "internalType": "uint256",
          "name": "_tokenId",
          "type": "uint256"
        },
        {
          "internalType": "uint256",
          "name": "_price",
          "type": "uint256"
        }
      ],
      "name": "buyNFT",
      "outputs": [],
      "stateMutability": "nonpayable",
      "type": "function"
    },
    {
      "inputs": [],
      "name": "getListedNFT",
      "outputs": [
        {
          "components": [
            {
              "internalType": "address payable",
              "name": "author",
              "type": "address"
            },
            {
              "internalType": "uint256",
              "name": "price",
              "type": "uint256"
            },
            {
              "internalType": "uint256",
              "name": "tokenId",
              "type": "uint256"
            }
          ],
          "internalType": "struct EyeMarketplace.ListDetail[]",
          "name": "",
          "type": "tuple[]"
        }
      ],
      "stateMutability": "view",
      "type": "function"
    },
    {
      "inputs": [
        {
          "internalType": "uint256",
          "name": "_tokenId",
          "type": "uint256"
        },
        {
          "internalType": "uint256",
          "name": "_price",
          "type": "uint256"
        }
      ],
      "name": "listNFT",
      "outputs": [],
      "stateMutability": "nonpayable",
      "type": "function"
    },
    {
      "inputs": [
        {
          "internalType": "address",
          "name": "",
          "type": "address"
        },
        {
          "internalType": "address",
          "name": "",
          "type": "address"
        },
        {
          "internalType": "uint256",
          "name": "",
          "type": "uint256"
        },
        {
          "internalType": "bytes",
          "name": "",
          "type": "bytes"
        }
      ],
      "name": "onERC721Received",
      "outputs": [
        {
          "internalType": "bytes4",
          "name": "",
          "type": "bytes4"
        }
      ],
      "stateMutability": "pure",
      "type": "function"
    },
    {
      "inputs": [],
      "name": "owner",
      "outputs": [
        {
          "internalType": "address",
          "name": "",
          "type": "address"
        }
      ],
      "stateMutability": "view",
      "type": "function"
    },
    {
      "inputs": [],
      "name": "renounceOwnership",
      "outputs": [],
      "stateMutability": "nonpayable",
      "type": "function"
    },
    {
      "inputs": [
        {
          "internalType": "contract IERC721Enumerable",
          "name": "_nft",
          "type": "address"
        }
      ],
      "name": "setNFT",
      "outputs": [],
      "stateMutability": "nonpayable",
      "type": "function"
    },
    {
      "inputs": [
        {
          "internalType": "uint256",
          "name": "_tax",
          "type": "uint256"
        }
      ],
      "name": "setTax",
      "outputs": [],
      "stateMutability": "nonpayable",
      "type": "function"
    },
    {
      "inputs": [
        {
          "internalType": "contract IERC20",
          "name": "_token",
          "type": "address"
        }
      ],
      "name": "setToken",
      "outputs": [],
      "stateMutability": "nonpayable",
      "type": "function"
    },
    {
      "inputs": [
        {
          "internalType": "address",
          "name": "newOwner",
          "type": "address"
        }
      ],
      "name": "transferOwnership",
      "outputs": [],
      "stateMutability": "nonpayable",
      "type": "function"
    },
    {
      "inputs": [
        {
          "internalType": "uint256",
          "name": "_tokenId",
          "type": "uint256"
        }
      ],
      "name": "unListNFT",
      "outputs": [],
      "stateMutability": "nonpayable",
      "type": "function"
    },
    {
      "inputs": [
        {
          "internalType": "uint256",
          "name": "_tokenId",
          "type": "uint256"
        },
        {
          "internalType": "uint256",
          "name": "_price",
          "type": "uint256"
        }
      ],
      "name": "updateListingNFTPrice",
      "outputs": [],
      "stateMutability": "nonpayable",
      "type": "function"
    },
    {
      "inputs": [],
      "name": "withdraw",
      "outputs": [],
      "stateMutability": "nonpayable",
      "type": "function"
    },
    {
      "inputs": [],
      "name": "withdrawErc20",
      "outputs": [],
      "stateMutability": "nonpayable",
      "type": "function"
    },
    {
      "inputs": [
        {
          "internalType": "uint256",
          "name": "_amount",
          "type": "uint256"
        }
      ],
      "name": "withdrawToken",
      "outputs": [],
      "stateMutability": "nonpayable",
      "type": "function"
    }
  ],
  "bytecode": "0x6080604052600a6003553480156200001657600080fd5b5060405162002c7038038062002c7083398181016040528101906200003c9190620002ec565b6200004c6200015d60201b60201c565b600073ffffffffffffffffffffffffffffffffffffffff168173ffffffffffffffffffffffffffffffffffffffff1603620000c15760006040517f1e4fbdf7000000000000000000000000000000000000000000000000000000008152600401620000b8919062000344565b60405180910390fd5b620000d2816200016560201b60201c565b5081600260006101000a81548173ffffffffffffffffffffffffffffffffffffffff021916908373ffffffffffffffffffffffffffffffffffffffff16021790555080600160006101000a81548173ffffffffffffffffffffffffffffffffffffffff021916908373ffffffffffffffffffffffffffffffffffffffff160217905550505062000361565b600033905090565b60008060009054906101000a900473ffffffffffffffffffffffffffffffffffffffff169050816000806101000a81548173ffffffffffffffffffffffffffffffffffffffff021916908373ffffffffffffffffffffffffffffffffffffffff1602179055508173ffffffffffffffffffffffffffffffffffffffff168173ffffffffffffffffffffffffffffffffffffffff167f8be0079c531659141344cd1fd0a4f28419497f9722a3daafe3b4186f6b6457e060405160405180910390a35050565b600080fd5b600073ffffffffffffffffffffffffffffffffffffffff82169050919050565b60006200025b826200022e565b9050919050565b60006200026f826200024e565b9050919050565b620002818162000262565b81146200028d57600080fd5b50565b600081519050620002a18162000276565b92915050565b6000620002b4826200024e565b9050919050565b620002c681620002a7565b8114620002d257600080fd5b50565b600081519050620002e681620002bb565b92915050565b6000806040838503121562000306576200030562000229565b5b6000620003168582860162000290565b92505060206200032985828601620002d5565b9150509250929050565b6200033e816200024e565b82525050565b60006020820190506200035b600083018462000333565b92915050565b6128ff80620003716000396000f3fe608060405234801561001057600080fd5b50600436106100f55760003560e01c8063504ab40a1161009757806394383f141161006657806394383f1414610210578063df55d3391461022c578063f2fde38b14610248578063f56e9c6614610264576100f5565b8063504ab40a146101ae57806350baa622146101cc578063715018a6146101e85780638da5cb5b146101f2576100f5565b80631d85bf03116100d35780631d85bf03146101625780632e5bb6ff1461017e5780633ccfd60b1461019a5780633e3f2359146101a4576100f5565b80630ca2f168146100fa578063144fa6d714610116578063150b7a0214610132575b600080fd5b610114600480360381019061010f9190611b5c565b610280565b005b610130600480360381019061012b9190611bf9565b610513565b005b61014c60048036038101906101479190611cb7565b610596565b6040516101599190611d7a565b60405180910390f35b61017c60048036038101906101779190611d95565b6105c4565b005b61019860048036038101906101939190611b5c565b610a06565b005b6101a2610a4f565b005b6101ac610aa0565b005b6101b6610be6565b6040516101c39190611ef6565b60405180910390f35b6101e660048036038101906101e19190611b5c565b610e4a565b005b6101f0610fd6565b005b6101fa610fea565b6040516102079190611f27565b60405180910390f35b61022a60048036038101906102259190611d95565b611013565b005b61024660048036038101906102419190611d95565b6113b0565b005b610262600480360381019061025d9190611f42565b6115b9565b005b61027e60048036038101906102799190611fad565b61163f565b005b803073ffffffffffffffffffffffffffffffffffffffff16600160009054906101000a900473ffffffffffffffffffffffffffffffffffffffff1673ffffffffffffffffffffffffffffffffffffffff16636352211e836040518263ffffffff1660e01b81526004016102f39190611fe9565b602060405180830381865afa158015610310573d6000803e3d6000fd5b505050506040513d601f19601f820116820180604052508101906103349190612019565b73ffffffffffffffffffffffffffffffffffffffff161461038a576040517f08c379a0000000000000000000000000000000000000000000000000000000008152600401610381906120c9565b60405180910390fd5b813373ffffffffffffffffffffffffffffffffffffffff166004600083815260200190815260200160002060000160009054906101000a900473ffffffffffffffffffffffffffffffffffffffff1673ffffffffffffffffffffffffffffffffffffffff161461042f576040517f08c379a000000000000000000000000000000000000000000000000000000000815260040161042690612135565b60405180910390fd5b600160009054906101000a900473ffffffffffffffffffffffffffffffffffffffff1673ffffffffffffffffffffffffffffffffffffffff166342842e0e3033866040518463ffffffff1660e01b815260040161048e93929190612155565b600060405180830381600087803b1580156104a857600080fd5b505af11580156104bc573d6000803e3d6000fd5b505050503373ffffffffffffffffffffffffffffffffffffffff167feab630e7b65be7272ded7edf9fd2e1b4af0c56fcb282521ea4e177f7f82fdc6a846040516105069190611fe9565b60405180910390a2505050565b61051b6116c2565b80600260006101000a81548173ffffffffffffffffffffffffffffffffffffffff021916908373ffffffffffffffffffffffffffffffffffffffff1602179055507fefc1fd16ea80a922086ee4e995739d59b025c1bcea6d1f67855747480c83214b8160405161058b91906121eb565b60405180910390a150565b60007f150b7a023d4804d13e8c85fb27262cb750cf6ba9f9dd3bb30d90f482ceeb4b1f905095945050505050565b8080600260009054906101000a900473ffffffffffffffffffffffffffffffffffffffff1673ffffffffffffffffffffffffffffffffffffffff166370a08231336040518263ffffffff1660e01b81526004016106219190611f27565b602060405180830381865afa15801561063e573d6000803e3d6000fd5b505050506040513d601f19601f82011682018060405250810190610662919061221b565b10156106a3576040517f08c379a000000000000000000000000000000000000000000000000000000000815260040161069a906122ba565b60405180910390fd5b823073ffffffffffffffffffffffffffffffffffffffff16600160009054906101000a900473ffffffffffffffffffffffffffffffffffffffff1673ffffffffffffffffffffffffffffffffffffffff16636352211e836040518263ffffffff1660e01b81526004016107169190611fe9565b602060405180830381865afa158015610733573d6000803e3d6000fd5b505050506040513d601f19601f820116820180604052508101906107579190612019565b73ffffffffffffffffffffffffffffffffffffffff16146107ad576040517f08c379a00000000000000000000000000000000000000000000000000000000081526004016107a4906120c9565b60405180910390fd5b83838060046000848152602001908152602001600020600101541115610808576040517f08c379a00000000000000000000000000000000000000000000000000000000081526004016107ff9061234c565b60405180910390fd5b610836600260009054906101000a900473ffffffffffffffffffffffffffffffffffffffff16333088611749565b600260009054906101000a900473ffffffffffffffffffffffffffffffffffffffff1673ffffffffffffffffffffffffffffffffffffffff1663a9059cbb6004600089815260200190815260200160002060000160009054906101000a900473ffffffffffffffffffffffffffffffffffffffff16606460035460646108bc919061239b565b896108c791906123cf565b6108d19190612440565b6040518363ffffffff1660e01b81526004016108ee929190612492565b6020604051808303816000875af115801561090d573d6000803e3d6000fd5b505050506040513d601f19601f8201168201806040525081019061093191906124f3565b50600160009054906101000a900473ffffffffffffffffffffffffffffffffffffffff1673ffffffffffffffffffffffffffffffffffffffff166342842e0e3033896040518463ffffffff1660e01b815260040161099193929190612155565b600060405180830381600087803b1580156109ab57600080fd5b505af11580156109bf573d6000803e3d6000fd5b505050507f5d963241241cfe9e161d13500d628058954b3febfde03e4b1f4071370e72fe2b3387876040516109f693929190612520565b60405180910390a1505050505050565b610a0e6116c2565b806003819055507f9fa979502e438dac613eeda5e69bdaf59a326dc09969a480e1e19078b24e15d181604051610a449190611fe9565b60405180910390a150565b610a576116c2565b3373ffffffffffffffffffffffffffffffffffffffff166108fc479081150290604051600060405180830381858888f19350505050158015610a9d573d6000803e3d6000fd5b50565b610aa86116c2565b600260009054906101000a900473ffffffffffffffffffffffffffffffffffffffff1673ffffffffffffffffffffffffffffffffffffffff1663a9059cbb33600260009054906101000a900473ffffffffffffffffffffffffffffffffffffffff1673ffffffffffffffffffffffffffffffffffffffff166370a08231306040518263ffffffff1660e01b8152600401610b429190611f27565b602060405180830381865afa158015610b5f573d6000803e3d6000fd5b505050506040513d601f19601f82011682018060405250810190610b83919061221b565b6040518363ffffffff1660e01b8152600401610ba0929190612557565b6020604051808303816000875af1158015610bbf573d6000803e3d6000fd5b505050506040513d601f19601f82011682018060405250810190610be391906124f3565b50565b60606000600160009054906101000a900473ffffffffffffffffffffffffffffffffffffffff1673ffffffffffffffffffffffffffffffffffffffff166370a08231306040518263ffffffff1660e01b8152600401610c459190611f27565b602060405180830381865afa158015610c62573d6000803e3d6000fd5b505050506040513d601f19601f82011682018060405250810190610c86919061221b565b905060008167ffffffffffffffff811115610ca457610ca3612580565b5b604051908082528060200260200182016040528015610cdd57816020015b610cca611ae5565b815260200190600190039081610cc25790505b50905060005b82811015610e415760046000600160009054906101000a900473ffffffffffffffffffffffffffffffffffffffff1673ffffffffffffffffffffffffffffffffffffffff16632f745c5930856040518363ffffffff1660e01b8152600401610d4c929190612557565b602060405180830381865afa158015610d69573d6000803e3d6000fd5b505050506040513d601f19601f82011682018060405250810190610d8d919061221b565b81526020019081526020016000206040518060600160405290816000820160009054906101000a900473ffffffffffffffffffffffffffffffffffffffff1673ffffffffffffffffffffffffffffffffffffffff1673ffffffffffffffffffffffffffffffffffffffff16815260200160018201548152602001600282015481525050828281518110610e2357610e226125af565b5b60200260200101819052508080610e39906125de565b915050610ce3565b50809250505090565b610e526116c2565b8080600260009054906101000a900473ffffffffffffffffffffffffffffffffffffffff1673ffffffffffffffffffffffffffffffffffffffff166370a08231306040518263ffffffff1660e01b8152600401610eaf9190611f27565b602060405180830381865afa158015610ecc573d6000803e3d6000fd5b505050506040513d601f19601f82011682018060405250810190610ef0919061221b565b1015610f31576040517f08c379a0000000000000000000000000000000000000000000000000000000008152600401610f2890612698565b60405180910390fd5b600260009054906101000a900473ffffffffffffffffffffffffffffffffffffffff1673ffffffffffffffffffffffffffffffffffffffff1663a9059cbb33846040518363ffffffff1660e01b8152600401610f8e929190612557565b6020604051808303816000875af1158015610fad573d6000803e3d6000fd5b505050506040513d601f19601f82011682018060405250810190610fd191906124f3565b505050565b610fde6116c2565b610fe860006117cb565b565b60008060009054906101000a900473ffffffffffffffffffffffffffffffffffffffff16905090565b813373ffffffffffffffffffffffffffffffffffffffff16600160009054906101000a900473ffffffffffffffffffffffffffffffffffffffff1673ffffffffffffffffffffffffffffffffffffffff16636352211e836040518263ffffffff1660e01b81526004016110869190611fe9565b602060405180830381865afa1580156110a3573d6000803e3d6000fd5b505050506040513d601f19601f820116820180604052508101906110c79190612019565b73ffffffffffffffffffffffffffffffffffffffff161461111d576040517f08c379a00000000000000000000000000000000000000000000000000000000081526004016111149061272a565b60405180910390fd5b823073ffffffffffffffffffffffffffffffffffffffff16600160009054906101000a900473ffffffffffffffffffffffffffffffffffffffff1673ffffffffffffffffffffffffffffffffffffffff1663081812fc836040518263ffffffff1660e01b81526004016111909190611fe9565b602060405180830381865afa1580156111ad573d6000803e3d6000fd5b505050506040513d601f19601f820116820180604052508101906111d19190612019565b73ffffffffffffffffffffffffffffffffffffffff1614611227576040517f08c379a000000000000000000000000000000000000000000000000000000000815260040161121e906127bc565b60405180910390fd5b60405180606001604052803373ffffffffffffffffffffffffffffffffffffffff168152602001848152602001858152506004600086815260200190815260200160002060008201518160000160006101000a81548173ffffffffffffffffffffffffffffffffffffffff021916908373ffffffffffffffffffffffffffffffffffffffff1602179055506020820151816001015560408201518160020155905050600160009054906101000a900473ffffffffffffffffffffffffffffffffffffffff1673ffffffffffffffffffffffffffffffffffffffff166342842e0e3330876040518463ffffffff1660e01b815260040161132893929190612155565b600060405180830381600087803b15801561134257600080fd5b505af1158015611356573d6000803e3d6000fd5b505050503373ffffffffffffffffffffffffffffffffffffffff167f6cd52e2afd4c9fdb90f6226975fb688c697f05f2c4306f5bff7ea8cd941ed7ce85856040516113a29291906127dc565b60405180910390a250505050565b813073ffffffffffffffffffffffffffffffffffffffff16600160009054906101000a900473ffffffffffffffffffffffffffffffffffffffff1673ffffffffffffffffffffffffffffffffffffffff16636352211e836040518263ffffffff1660e01b81526004016114239190611fe9565b602060405180830381865afa158015611440573d6000803e3d6000fd5b505050506040513d601f19601f820116820180604052508101906114649190612019565b73ffffffffffffffffffffffffffffffffffffffff16146114ba576040517f08c379a00000000000000000000000000000000000000000000000000000000081526004016114b1906120c9565b60405180910390fd5b823373ffffffffffffffffffffffffffffffffffffffff166004600083815260200190815260200160002060000160009054906101000a900473ffffffffffffffffffffffffffffffffffffffff1673ffffffffffffffffffffffffffffffffffffffff161461155f576040517f08c379a000000000000000000000000000000000000000000000000000000000815260040161155690612135565b60405180910390fd5b8260046000868152602001908152602001600020600101819055507fc7113691cf96332a4c71d0e3d8fc13f177dc22111131519552cd24a04fde1e5c84846040516115ab9291906127dc565b60405180910390a150505050565b6115c16116c2565b600073ffffffffffffffffffffffffffffffffffffffff168173ffffffffffffffffffffffffffffffffffffffff16036116335760006040517f1e4fbdf700000000000000000000000000000000000000000000000000000000815260040161162a9190611f27565b60405180910390fd5b61163c816117cb565b50565b6116476116c2565b80600160006101000a81548173ffffffffffffffffffffffffffffffffffffffff021916908373ffffffffffffffffffffffffffffffffffffffff1602179055507ff8525b9383ba5cc1b196c9a879bcbe7911913876aaff159ec424e1bb6136fff2816040516116b79190612826565b60405180910390a150565b6116ca61188f565b73ffffffffffffffffffffffffffffffffffffffff166116e8610fea565b73ffffffffffffffffffffffffffffffffffffffff16146117475761170b61188f565b6040517f118cdaa700000000000000000000000000000000000000000000000000000000815260040161173e9190611f27565b60405180910390fd5b565b6117c5848573ffffffffffffffffffffffffffffffffffffffff166323b872dd86868660405160240161177e93929190612155565b604051602081830303815290604052915060e01b6020820180517bffffffffffffffffffffffffffffffffffffffffffffffffffffffff8381831617835250505050611897565b50505050565b60008060009054906101000a900473ffffffffffffffffffffffffffffffffffffffff169050816000806101000a81548173ffffffffffffffffffffffffffffffffffffffff021916908373ffffffffffffffffffffffffffffffffffffffff1602179055508173ffffffffffffffffffffffffffffffffffffffff168173ffffffffffffffffffffffffffffffffffffffff167f8be0079c531659141344cd1fd0a4f28419497f9722a3daafe3b4186f6b6457e060405160405180910390a35050565b600033905090565b60006118c2828473ffffffffffffffffffffffffffffffffffffffff1661192e90919063ffffffff16565b905060008151141580156118e75750808060200190518101906118e591906124f3565b155b1561192957826040517f5274afe70000000000000000000000000000000000000000000000000000000081526004016119209190611f27565b60405180910390fd5b505050565b606061193c83836000611944565b905092915050565b60608147101561198b57306040517fcd7860590000000000000000000000000000000000000000000000000000000081526004016119829190611f27565b60405180910390fd5b6000808573ffffffffffffffffffffffffffffffffffffffff1684866040516119b491906128b2565b60006040518083038185875af1925050503d80600081146119f1576040519150601f19603f3d011682016040523d82523d6000602084013e6119f6565b606091505b5091509150611a06868383611a11565b925050509392505050565b606082611a2657611a2182611aa0565b611a98565b60008251148015611a4e575060008473ffffffffffffffffffffffffffffffffffffffff163b145b15611a9057836040517f9996b315000000000000000000000000000000000000000000000000000000008152600401611a879190611f27565b60405180910390fd5b819050611a99565b5b9392505050565b600081511115611ab35780518082602001fd5b6040517f1425ea4200000000000000000000000000000000000000000000000000000000815260040160405180910390fd5b6040518060600160405280600073ffffffffffffffffffffffffffffffffffffffff16815260200160008152602001600081525090565b600080fd5b600080fd5b6000819050919050565b611b3981611b26565b8114611b4457600080fd5b50565b600081359050611b5681611b30565b92915050565b600060208284031215611b7257611b71611b1c565b5b6000611b8084828501611b47565b91505092915050565b600073ffffffffffffffffffffffffffffffffffffffff82169050919050565b6000611bb482611b89565b9050919050565b6000611bc682611ba9565b9050919050565b611bd681611bbb565b8114611be157600080fd5b50565b600081359050611bf381611bcd565b92915050565b600060208284031215611c0f57611c0e611b1c565b5b6000611c1d84828501611be4565b91505092915050565b611c2f81611ba9565b8114611c3a57600080fd5b50565b600081359050611c4c81611c26565b92915050565b600080fd5b600080fd5b600080fd5b60008083601f840112611c7757611c76611c52565b5b8235905067ffffffffffffffff811115611c9457611c93611c57565b5b602083019150836001820283011115611cb057611caf611c5c565b5b9250929050565b600080600080600060808688031215611cd357611cd2611b1c565b5b6000611ce188828901611c3d565b9550506020611cf288828901611c3d565b9450506040611d0388828901611b47565b935050606086013567ffffffffffffffff811115611d2457611d23611b21565b5b611d3088828901611c61565b92509250509295509295909350565b60007fffffffff0000000000000000000000000000000000000000000000000000000082169050919050565b611d7481611d3f565b82525050565b6000602082019050611d8f6000830184611d6b565b92915050565b60008060408385031215611dac57611dab611b1c565b5b6000611dba85828601611b47565b9250506020611dcb85828601611b47565b9150509250929050565b600081519050919050565b600082825260208201905092915050565b6000819050602082019050919050565b6000611e0c82611b89565b9050919050565b611e1c81611e01565b82525050565b611e2b81611b26565b82525050565b606082016000820151611e476000850182611e13565b506020820151611e5a6020850182611e22565b506040820151611e6d6040850182611e22565b50505050565b6000611e7f8383611e31565b60608301905092915050565b6000602082019050919050565b6000611ea382611dd5565b611ead8185611de0565b9350611eb883611df1565b8060005b83811015611ee9578151611ed08882611e73565b9750611edb83611e8b565b925050600181019050611ebc565b5085935050505092915050565b60006020820190508181036000830152611f108184611e98565b905092915050565b611f2181611ba9565b82525050565b6000602082019050611f3c6000830184611f18565b92915050565b600060208284031215611f5857611f57611b1c565b5b6000611f6684828501611c3d565b91505092915050565b6000611f7a82611ba9565b9050919050565b611f8a81611f6f565b8114611f9557600080fd5b50565b600081359050611fa781611f81565b92915050565b600060208284031215611fc357611fc2611b1c565b5b6000611fd184828501611f98565b91505092915050565b611fe381611b26565b82525050565b6000602082019050611ffe6000830184611fda565b92915050565b60008151905061201381611c26565b92915050565b60006020828403121561202f5761202e611b1c565b5b600061203d84828501612004565b91505092915050565b600082825260208201905092915050565b7f54686973204e4654206e6f74206578697374206f6e206d61726b6574706c616360008201527f6500000000000000000000000000000000000000000000000000000000000000602082015250565b60006120b3602183612046565b91506120be82612057565b604082019050919050565b600060208201905081810360008301526120e2816120a6565b9050919050565b7f4f6e6c79206f776e65722063616e2068616e646c652074686973204e46540000600082015250565b600061211f601e83612046565b915061212a826120e9565b602082019050919050565b6000602082019050818103600083015261214e81612112565b9050919050565b600060608201905061216a6000830186611f18565b6121776020830185611f18565b6121846040830184611fda565b949350505050565b6000819050919050565b60006121b16121ac6121a784611b89565b61218c565b611b89565b9050919050565b60006121c382612196565b9050919050565b60006121d5826121b8565b9050919050565b6121e5816121ca565b82525050565b600060208201905061220060008301846121dc565b92915050565b60008151905061221581611b30565b92915050565b60006020828403121561223157612230611b1c565b5b600061223f84828501612206565b91505092915050565b7f496e73756666696369656e74206163636f756e742062616c616e6365206f662060008201527f73656e6465720000000000000000000000000000000000000000000000000000602082015250565b60006122a4602683612046565b91506122af82612248565b604082019050919050565b600060208201905081810360008301526122d381612297565b9050919050565b7f4d696e696d756d20707269636520686173206e6f74206265656e20726561636860008201527f6564000000000000000000000000000000000000000000000000000000000000602082015250565b6000612336602283612046565b9150612341826122da565b604082019050919050565b6000602082019050818103600083015261236581612329565b9050919050565b7f4e487b7100000000000000000000000000000000000000000000000000000000600052601160045260246000fd5b60006123a682611b26565b91506123b183611b26565b92508282039050818111156123c9576123c861236c565b5b92915050565b60006123da82611b26565b91506123e583611b26565b92508282026123f381611b26565b9150828204841483151761240a5761240961236c565b5b5092915050565b7f4e487b7100000000000000000000000000000000000000000000000000000000600052601260045260246000fd5b600061244b82611b26565b915061245683611b26565b92508261246657612465612411565b5b828204905092915050565b600061247c826121b8565b9050919050565b61248c81612471565b82525050565b60006040820190506124a76000830185612483565b6124b46020830184611fda565b9392505050565b60008115159050919050565b6124d0816124bb565b81146124db57600080fd5b50565b6000815190506124ed816124c7565b92915050565b60006020828403121561250957612508611b1c565b5b6000612517848285016124de565b91505092915050565b60006060820190506125356000830186611f18565b6125426020830185611fda565b61254f6040830184611fda565b949350505050565b600060408201905061256c6000830185611f18565b6125796020830184611fda565b9392505050565b7f4e487b7100000000000000000000000000000000000000000000000000000000600052604160045260246000fd5b7f4e487b7100000000000000000000000000000000000000000000000000000000600052603260045260246000fd5b60006125e982611b26565b91507fffffffffffffffffffffffffffffffffffffffffffffffffffffffffffffffff820361261b5761261a61236c565b5b600182019050919050565b7f496e73756666696369656e74206163636f756e742062616c616e6365206f662060008201527f636f6e7472616374000000000000000000000000000000000000000000000000602082015250565b6000612682602883612046565b915061268d82612626565b604082019050919050565b600060208201905081810360008301526126b181612675565b9050919050565b7f596f7520617265206e6f7420746865206f776e6572206f662074686973204e4660008201527f5400000000000000000000000000000000000000000000000000000000000000602082015250565b6000612714602183612046565b915061271f826126b8565b604082019050919050565b6000602082019050818103600083015261274381612707565b9050919050565b7f4d61726b6574706c616365206973206e6f7420617070726f76656420746f207460008201527f72616e736665722074686973204e465400000000000000000000000000000000602082015250565b60006127a6603083612046565b91506127b18261274a565b604082019050919050565b600060208201905081810360008301526127d581612799565b9050919050565b60006040820190506127f16000830185611fda565b6127fe6020830184611fda565b9392505050565b6000612810826121b8565b9050919050565b61282081612805565b82525050565b600060208201905061283b6000830184612817565b92915050565b600081519050919050565b600081905092915050565b60005b8381101561287557808201518184015260208101905061285a565b60008484015250505050565b600061288c82612841565b612896818561284c565b93506128a6818560208601612857565b80840191505092915050565b60006128be8284612881565b91508190509291505056fea26469706673582212205a7027c697bf7001437439b3ee4fa3fb70c2ad24ee8804f861e022e36eba3a2164736f6c63430008150033",
  "linkReferences": {},
  "deployedLinkReferences": {}
}