{
  "_format": "hh-sol-artifact-1",
  "contractName": "BSSCrowdSale",
  "sourceName": "contracts/BSSCrowdSale.sol",
  "abi": [
    {
      "inputs": [
        {
          "internalType": "uint256",
          "name": "_bnbRate",
          "type": "uint256"
        },
        {
          "internalType": "uint256",
          "name": "_usdtRate",
          "type": "uint256"
        },
        {
          "internalType": "address payable",
          "name": "_wallet",
          "type": "address"
        },
        {
          "internalType": "contract IERC20",
          "name": "_icoToken",
          "type": "address"
        }
      ],
      "stateMutability": "nonpayable",
      "type": "constructor"
    },
    {
      "inputs": [
        {
          "internalType": "address",
          "name": "target",
          "type": "address"
        }
      ],
      "name": "AddressEmptyCode",
      "type": "error"
    },
    {
      "inputs": [
        {
          "internalType": "address",
          "name": "account",
          "type": "address"
        }
      ],
      "name": "AddressInsufficientBalance",
      "type": "error"
    },
    {
      "inputs": [],
      "name": "FailedInnerCall",
      "type": "error"
    },
    {
      "inputs": [
        {
          "internalType": "address",
          "name": "owner",
          "type": "address"
        }
      ],
      "name": "OwnableInvalidOwner",
      "type": "error"
    },
    {
      "inputs": [
        {
          "internalType": "address",
          "name": "account",
          "type": "address"
        }
      ],
      "name": "OwnableUnauthorizedAccount",
      "type": "error"
    },
    {
      "inputs": [
        {
          "internalType": "address",
          "name": "token",
          "type": "address"
        }
      ],
      "name": "SafeERC20FailedOperation",
      "type": "error"
    },
    {
      "anonymous": false,
      "inputs": [
        {
          "indexed": false,
          "internalType": "address",
          "name": "_buyer",
          "type": "address"
        },
        {
          "indexed": false,
          "internalType": "uint256",
          "name": "_amount",
          "type": "uint256"
        }
      ],
      "name": "BuyTokenByBNB",
      "type": "event"
    },
    {
      "anonymous": false,
      "inputs": [
        {
          "indexed": false,
          "internalType": "address",
          "name": "_buyer",
          "type": "address"
        },
        {
          "indexed": false,
          "internalType": "uint256",
          "name": "_amount",
          "type": "uint256"
        }
      ],
      "name": "BuyTokenByUSDT",
      "type": "event"
    },
    {
      "anonymous": false,
      "inputs": [
        {
          "indexed": true,
          "internalType": "address",
          "name": "previousOwner",
          "type": "address"
        },
        {
          "indexed": true,
          "internalType": "address",
          "name": "newOwner",
          "type": "address"
        }
      ],
      "name": "OwnershipTransferred",
      "type": "event"
    },
    {
      "anonymous": false,
      "inputs": [
        {
          "indexed": false,
          "internalType": "uint256",
          "name": "_newRate",
          "type": "uint256"
        }
      ],
      "name": "SetBNBRate",
      "type": "event"
    },
    {
      "anonymous": false,
      "inputs": [
        {
          "indexed": false,
          "internalType": "uint256",
          "name": "_newRate",
          "type": "uint256"
        }
      ],
      "name": "SetUSDTRate",
      "type": "event"
    },
    {
      "anonymous": false,
      "inputs": [
        {
          "indexed": false,
          "internalType": "contract IERC20",
          "name": "_tokenAddress",
          "type": "address"
        }
      ],
      "name": "SetUSDTToken",
      "type": "event"
    },
    {
      "inputs": [],
      "name": "BNB_rate",
      "outputs": [
        {
          "internalType": "uint256",
          "name": "",
          "type": "uint256"
        }
      ],
      "stateMutability": "view",
      "type": "function"
    },
    {
      "inputs": [],
      "name": "USDT_rate",
      "outputs": [
        {
          "internalType": "uint256",
          "name": "",
          "type": "uint256"
        }
      ],
      "stateMutability": "view",
      "type": "function"
    },
    {
      "inputs": [],
      "name": "buyTokenByBNB",
      "outputs": [],
      "stateMutability": "payable",
      "type": "function"
    },
    {
      "inputs": [
        {
          "internalType": "uint256",
          "name": "_usdtAmount",
          "type": "uint256"
        }
      ],
      "name": "buyTokenByUSDT",
      "outputs": [],
      "stateMutability": "nonpayable",
      "type": "function"
    },
    {
      "inputs": [
        {
          "internalType": "uint256",
          "name": "_amount",
          "type": "uint256"
        }
      ],
      "name": "getTokenAmountBNB",
      "outputs": [
        {
          "internalType": "uint256",
          "name": "",
          "type": "uint256"
        }
      ],
      "stateMutability": "view",
      "type": "function"
    },
    {
      "inputs": [
        {
          "internalType": "uint256",
          "name": "_amount",
          "type": "uint256"
        }
      ],
      "name": "getTokenAmountUSDT",
      "outputs": [
        {
          "internalType": "uint256",
          "name": "",
          "type": "uint256"
        }
      ],
      "stateMutability": "view",
      "type": "function"
    },
    {
      "inputs": [],
      "name": "owner",
      "outputs": [
        {
          "internalType": "address",
          "name": "",
          "type": "address"
        }
      ],
      "stateMutability": "view",
      "type": "function"
    },
    {
      "inputs": [],
      "name": "renounceOwnership",
      "outputs": [],
      "stateMutability": "nonpayable",
      "type": "function"
    },
    {
      "inputs": [
        {
          "internalType": "uint256",
          "name": "_newRate",
          "type": "uint256"
        }
      ],
      "name": "setBNBRate",
      "outputs": [],
      "stateMutability": "nonpayable",
      "type": "function"
    },
    {
      "inputs": [
        {
          "internalType": "uint256",
          "name": "_newRate",
          "type": "uint256"
        }
      ],
      "name": "setUSDTRate",
      "outputs": [],
      "stateMutability": "nonpayable",
      "type": "function"
    },
    {
      "inputs": [
        {
          "internalType": "contract IERC20",
          "name": "_tokenAddress",
          "type": "address"
        }
      ],
      "name": "setUSDTToken",
      "outputs": [],
      "stateMutability": "nonpayable",
      "type": "function"
    },
    {
      "inputs": [],
      "name": "token",
      "outputs": [
        {
          "internalType": "contract IERC20",
          "name": "",
          "type": "address"
        }
      ],
      "stateMutability": "view",
      "type": "function"
    },
    {
      "inputs": [
        {
          "internalType": "address",
          "name": "newOwner",
          "type": "address"
        }
      ],
      "name": "transferOwnership",
      "outputs": [],
      "stateMutability": "nonpayable",
      "type": "function"
    },
    {
      "inputs": [],
      "name": "usdtToken",
      "outputs": [
        {
          "internalType": "contract IERC20",
          "name": "",
          "type": "address"
        }
      ],
      "stateMutability": "view",
      "type": "function"
    },
    {
      "inputs": [],
      "name": "wallet",
      "outputs": [
        {
          "internalType": "address payable",
          "name": "",
          "type": "address"
        }
      ],
      "stateMutability": "view",
      "type": "function"
    },
    {
      "inputs": [],
      "name": "withdraw",
      "outputs": [],
      "stateMutability": "nonpayable",
      "type": "function"
    },
    {
      "inputs": [],
      "name": "withdrawErc20",
      "outputs": [],
      "stateMutability": "nonpayable",
      "type": "function"
    }
  ],
  "bytecode": "0x60806040523480156200001157600080fd5b5060405162001c1a38038062001c1a83398181016040528101906200003791906200031b565b33600073ffffffffffffffffffffffffffffffffffffffff168173ffffffffffffffffffffffffffffffffffffffff1603620000ad5760006040517f1e4fbdf7000000000000000000000000000000000000000000000000000000008152600401620000a491906200039e565b60405180910390fd5b620000be816200015960201b60201c565b50836002819055508260038190555081600160006101000a81548173ffffffffffffffffffffffffffffffffffffffff021916908373ffffffffffffffffffffffffffffffffffffffff16021790555080600460006101000a81548173ffffffffffffffffffffffffffffffffffffffff021916908373ffffffffffffffffffffffffffffffffffffffff16021790555050505050620003bb565b60008060009054906101000a900473ffffffffffffffffffffffffffffffffffffffff169050816000806101000a81548173ffffffffffffffffffffffffffffffffffffffff021916908373ffffffffffffffffffffffffffffffffffffffff1602179055508173ffffffffffffffffffffffffffffffffffffffff168173ffffffffffffffffffffffffffffffffffffffff167f8be0079c531659141344cd1fd0a4f28419497f9722a3daafe3b4186f6b6457e060405160405180910390a35050565b600080fd5b6000819050919050565b620002378162000222565b81146200024357600080fd5b50565b60008151905062000257816200022c565b92915050565b600073ffffffffffffffffffffffffffffffffffffffff82169050919050565b60006200028a826200025d565b9050919050565b6200029c816200027d565b8114620002a857600080fd5b50565b600081519050620002bc8162000291565b92915050565b6000620002cf826200025d565b9050919050565b6000620002e382620002c2565b9050919050565b620002f581620002d6565b81146200030157600080fd5b50565b6000815190506200031581620002ea565b92915050565b600080600080608085870312156200033857620003376200021d565b5b6000620003488782880162000246565b94505060206200035b8782880162000246565b93505060406200036e87828801620002ab565b9250506060620003818782880162000304565b91505092959194509250565b6200039881620002c2565b82525050565b6000602082019050620003b560008301846200038d565b92915050565b61184f80620003cb6000396000f3fe6080604052600436106100fe5760003560e01c8063592a00e411610095578063a98ad46c11610064578063a98ad46c146102b6578063acb03d43146102e1578063c5d156511461031e578063f2fde38b14610347578063fc0c546a14610370576100fe565b8063592a00e41461022057806366e226bd1461024b578063715018a6146102745780638da5cb5b1461028b576100fe565b806331927737116100d157806331927737146101bd5780633ccfd60b146101c75780633e3f2359146101de578063521eb273146101f5576100fe565b8063157fc821146101035780631832d8b61461012e5780631b4622d61461016b5780632be8629914610194575b600080fd5b34801561010f57600080fd5b5061011861039b565b6040516101259190611197565b60405180910390f35b34801561013a57600080fd5b50610155600480360381019061015091906111e3565b6103a1565b6040516101629190611197565b60405180910390f35b34801561017757600080fd5b50610192600480360381019061018d91906111e3565b6103b8565b005b3480156101a057600080fd5b506101bb60048036038101906101b691906111e3565b610401565b005b6101c561044a565b005b3480156101d357600080fd5b506101dc6106aa565b005b3480156101ea57600080fd5b506101f36106fb565b005b34801561020157600080fd5b5061020a610841565b6040516102179190611251565b60405180910390f35b34801561022c57600080fd5b50610235610867565b6040516102429190611197565b60405180910390f35b34801561025757600080fd5b50610272600480360381019061026d91906112bc565b61086d565b005b34801561028057600080fd5b506102896108f0565b005b34801561029757600080fd5b506102a0610904565b6040516102ad91906112f8565b60405180910390f35b3480156102c257600080fd5b506102cb61092d565b6040516102d89190611372565b60405180910390f35b3480156102ed57600080fd5b50610308600480360381019061030391906111e3565b610953565b6040516103159190611197565b60405180910390f35b34801561032a57600080fd5b50610345600480360381019061034091906111e3565b61096a565b005b34801561035357600080fd5b5061036e600480360381019061036991906113b9565b610c30565b005b34801561037c57600080fd5b50610385610cb6565b6040516103929190611372565b60405180910390f35b60025481565b6000600354826103b19190611415565b9050919050565b6103c0610cdc565b806003819055507fbdaa37e3f6679857d8c3e80d172bd45af732a8658cf1d690c81ca96f5a443b5b816040516103f69190611197565b60405180910390a150565b610409610cdc565b806002819055507fb0cc740bbbfcd5af22ee3956c6b44d2d6f499e2a86cb11d915fcce88dca2113a8160405161043f9190611197565b60405180910390a150565b6000349050600061045a82610953565b90506000811161049f576040517f08c379a0000000000000000000000000000000000000000000000000000000008152600401610496906114b4565b60405180910390fd5b80600460009054906101000a900473ffffffffffffffffffffffffffffffffffffffff1673ffffffffffffffffffffffffffffffffffffffff166370a08231306040518263ffffffff1660e01b81526004016104fb91906112f8565b602060405180830381865afa158015610518573d6000803e3d6000fd5b505050506040513d601f19601f8201168201806040525081019061053c91906114e9565b101561057d576040517f08c379a000000000000000000000000000000000000000000000000000000000815260040161057490611588565b60405180910390fd5b813373ffffffffffffffffffffffffffffffffffffffff163110156105d7576040517f08c379a00000000000000000000000000000000000000000000000000000000081526004016105ce9061161a565b60405180910390fd5b600160009054906101000a900473ffffffffffffffffffffffffffffffffffffffff1673ffffffffffffffffffffffffffffffffffffffff166108fc839081150290604051600060405180830381858888f1935050505015801561063f573d6000803e3d6000fd5b5061066d600460009054906101000a900473ffffffffffffffffffffffffffffffffffffffff163383610d63565b7ff695091b71a5c3ea41510251da89a66470bbcf1ee118f820a1bab8739e29ea50338260405161069e92919061163a565b60405180910390a15050565b6106b2610cdc565b3373ffffffffffffffffffffffffffffffffffffffff166108fc479081150290604051600060405180830381858888f193505050501580156106f8573d6000803e3d6000fd5b50565b610703610cdc565b600560009054906101000a900473ffffffffffffffffffffffffffffffffffffffff1673ffffffffffffffffffffffffffffffffffffffff1663a9059cbb33600560009054906101000a900473ffffffffffffffffffffffffffffffffffffffff1673ffffffffffffffffffffffffffffffffffffffff166370a08231306040518263ffffffff1660e01b815260040161079d91906112f8565b602060405180830381865afa1580156107ba573d6000803e3d6000fd5b505050506040513d601f19601f820116820180604052508101906107de91906114e9565b6040518363ffffffff1660e01b81526004016107fb92919061163a565b6020604051808303816000875af115801561081a573d6000803e3d6000fd5b505050506040513d601f19601f8201168201806040525081019061083e919061169b565b50565b600160009054906101000a900473ffffffffffffffffffffffffffffffffffffffff1681565b60035481565b610875610cdc565b80600560006101000a81548173ffffffffffffffffffffffffffffffffffffffff021916908373ffffffffffffffffffffffffffffffffffffffff1602179055507f43036333e58a6f9255617b54ec9f5825590c8ee695a222dc35e5001927f07151816040516108e59190611372565b60405180910390a150565b6108f8610cdc565b6109026000610de2565b565b60008060009054906101000a900473ffffffffffffffffffffffffffffffffffffffff16905090565b600560009054906101000a900473ffffffffffffffffffffffffffffffffffffffff1681565b6000600254826109639190611415565b9050919050565b6000610975826103a1565b905081600560009054906101000a900473ffffffffffffffffffffffffffffffffffffffff1673ffffffffffffffffffffffffffffffffffffffff166370a08231336040518263ffffffff1660e01b81526004016109d391906112f8565b602060405180830381865afa1580156109f0573d6000803e3d6000fd5b505050506040513d601f19601f82011682018060405250810190610a1491906114e9565b1015610a55576040517f08c379a0000000000000000000000000000000000000000000000000000000008152600401610a4c9061173a565b60405180910390fd5b60008111610a98576040517f08c379a0000000000000000000000000000000000000000000000000000000008152600401610a8f906114b4565b60405180910390fd5b80600460009054906101000a900473ffffffffffffffffffffffffffffffffffffffff1673ffffffffffffffffffffffffffffffffffffffff166370a08231306040518263ffffffff1660e01b8152600401610af491906112f8565b602060405180830381865afa158015610b11573d6000803e3d6000fd5b505050506040513d601f19601f82011682018060405250810190610b3591906114e9565b1015610b76576040517f08c379a0000000000000000000000000000000000000000000000000000000008152600401610b6d90611588565b60405180910390fd5b610bc6600560009054906101000a900473ffffffffffffffffffffffffffffffffffffffff1633600160009054906101000a900473ffffffffffffffffffffffffffffffffffffffff1685610ea6565b610bf3600460009054906101000a900473ffffffffffffffffffffffffffffffffffffffff163383610d63565b7f5c0161fad3fa89cfebd4a74115d9f81661cdd1b9008d05a238ea9d65088e20643382604051610c2492919061163a565b60405180910390a15050565b610c38610cdc565b600073ffffffffffffffffffffffffffffffffffffffff168173ffffffffffffffffffffffffffffffffffffffff1603610caa5760006040517f1e4fbdf7000000000000000000000000000000000000000000000000000000008152600401610ca191906112f8565b60405180910390fd5b610cb381610de2565b50565b600460009054906101000a900473ffffffffffffffffffffffffffffffffffffffff1681565b610ce4610f28565b73ffffffffffffffffffffffffffffffffffffffff16610d02610904565b73ffffffffffffffffffffffffffffffffffffffff1614610d6157610d25610f28565b6040517f118cdaa7000000000000000000000000000000000000000000000000000000008152600401610d5891906112f8565b60405180910390fd5b565b610ddd838473ffffffffffffffffffffffffffffffffffffffff1663a9059cbb8585604051602401610d9692919061163a565b604051602081830303815290604052915060e01b6020820180517bffffffffffffffffffffffffffffffffffffffffffffffffffffffff8381831617835250505050610f30565b505050565b60008060009054906101000a900473ffffffffffffffffffffffffffffffffffffffff169050816000806101000a81548173ffffffffffffffffffffffffffffffffffffffff021916908373ffffffffffffffffffffffffffffffffffffffff1602179055508173ffffffffffffffffffffffffffffffffffffffff168173ffffffffffffffffffffffffffffffffffffffff167f8be0079c531659141344cd1fd0a4f28419497f9722a3daafe3b4186f6b6457e060405160405180910390a35050565b610f22848573ffffffffffffffffffffffffffffffffffffffff166323b872dd868686604051602401610edb9392919061175a565b604051602081830303815290604052915060e01b6020820180517bffffffffffffffffffffffffffffffffffffffffffffffffffffffff8381831617835250505050610f30565b50505050565b600033905090565b6000610f5b828473ffffffffffffffffffffffffffffffffffffffff16610fc790919063ffffffff16565b90506000815114158015610f80575080806020019051810190610f7e919061169b565b155b15610fc257826040517f5274afe7000000000000000000000000000000000000000000000000000000008152600401610fb991906112f8565b60405180910390fd5b505050565b6060610fd583836000610fdd565b905092915050565b60608147101561102457306040517fcd78605900000000000000000000000000000000000000000000000000000000815260040161101b91906112f8565b60405180910390fd5b6000808573ffffffffffffffffffffffffffffffffffffffff16848660405161104d9190611802565b60006040518083038185875af1925050503d806000811461108a576040519150601f19603f3d011682016040523d82523d6000602084013e61108f565b606091505b509150915061109f8683836110aa565b925050509392505050565b6060826110bf576110ba82611139565b611131565b600082511480156110e7575060008473ffffffffffffffffffffffffffffffffffffffff163b145b1561112957836040517f9996b31500000000000000000000000000000000000000000000000000000000815260040161112091906112f8565b60405180910390fd5b819050611132565b5b9392505050565b60008151111561114c5780518082602001fd5b6040517f1425ea4200000000000000000000000000000000000000000000000000000000815260040160405180910390fd5b6000819050919050565b6111918161117e565b82525050565b60006020820190506111ac6000830184611188565b92915050565b600080fd5b6111c08161117e565b81146111cb57600080fd5b50565b6000813590506111dd816111b7565b92915050565b6000602082840312156111f9576111f86111b2565b5b6000611207848285016111ce565b91505092915050565b600073ffffffffffffffffffffffffffffffffffffffff82169050919050565b600061123b82611210565b9050919050565b61124b81611230565b82525050565b60006020820190506112666000830184611242565b92915050565b600061127782611210565b9050919050565b60006112898261126c565b9050919050565b6112998161127e565b81146112a457600080fd5b50565b6000813590506112b681611290565b92915050565b6000602082840312156112d2576112d16111b2565b5b60006112e0848285016112a7565b91505092915050565b6112f28161126c565b82525050565b600060208201905061130d60008301846112e9565b92915050565b6000819050919050565b600061133861133361132e84611210565b611313565b611210565b9050919050565b600061134a8261131d565b9050919050565b600061135c8261133f565b9050919050565b61136c81611351565b82525050565b60006020820190506113876000830184611363565b92915050565b6113968161126c565b81146113a157600080fd5b50565b6000813590506113b38161138d565b92915050565b6000602082840312156113cf576113ce6111b2565b5b60006113dd848285016113a4565b91505092915050565b7f4e487b7100000000000000000000000000000000000000000000000000000000600052601160045260246000fd5b60006114208261117e565b915061142b8361117e565b92508282026114398161117e565b915082820484148315176114505761144f6113e6565b5b5092915050565b600082825260208201905092915050565b7f416d6f756e74206973207a65726f210000000000000000000000000000000000600082015250565b600061149e600f83611457565b91506114a982611468565b602082019050919050565b600060208201905081810360008301526114cd81611491565b9050919050565b6000815190506114e3816111b7565b92915050565b6000602082840312156114ff576114fe6111b2565b5b600061150d848285016114d4565b91505092915050565b7f496e73756666696369656e74206163636f756e742062616c616e636520746f6b60008201527f656e210000000000000000000000000000000000000000000000000000000000602082015250565b6000611572602383611457565b915061157d82611516565b604082019050919050565b600060208201905081810360008301526115a181611565565b9050919050565b7f496e73756666696369656e74206163636f756e742062616c616e636520626e6260008201527f2100000000000000000000000000000000000000000000000000000000000000602082015250565b6000611604602183611457565b915061160f826115a8565b604082019050919050565b60006020820190508181036000830152611633816115f7565b9050919050565b600060408201905061164f60008301856112e9565b61165c6020830184611188565b9392505050565b60008115159050919050565b61167881611663565b811461168357600080fd5b50565b6000815190506116958161166f565b92915050565b6000602082840312156116b1576116b06111b2565b5b60006116bf84828501611686565b91505092915050565b7f496e73756666696369656e74206163636f756e742062616c616e63652075736460008201527f7421000000000000000000000000000000000000000000000000000000000000602082015250565b6000611724602283611457565b915061172f826116c8565b604082019050919050565b6000602082019050818103600083015261175381611717565b9050919050565b600060608201905061176f60008301866112e9565b61177c60208301856112e9565b6117896040830184611188565b949350505050565b600081519050919050565b600081905092915050565b60005b838110156117c55780820151818401526020810190506117aa565b60008484015250505050565b60006117dc82611791565b6117e6818561179c565b93506117f68185602086016117a7565b80840191505092915050565b600061180e82846117d1565b91508190509291505056fea264697066735822122039d55684a80eaf8cfb7221767ddb061a42ad4f6a9cdc4f7761c82f10e02559c664736f6c63430008150033",
  "linkReferences": {},
  "deployedLinkReferences": {}
}